:020000040000FA
:060000000A128A110C280F
:10000800FE00030EF0000A08F1000A128A154F2DAF
:100018000A128A110F280A128A11FD270A128A1158
:10002800FB00BC01BD01BE01BF01C001C101C2018D
:10003800C301C401C501C601F901FA0183010A120D
:100048008A11132E83120313B80033303306031DAD
:100058002E282F2869280030BF000030BE0000304D
:10006800BD000030BC00C001C201C1016030F60013
:100078008830F7008030F8000A128A1520250A1205
:100088008A118A3083120313B100DF300A128A11F1
:10009800E8270A128A11C530F6008830F700C03008
:1000A800F8000A128A1520250A128A111130F60062
:1000B8008830F700D030F8000A128A1520250A1275
:1000C8008A11FF3083120313B8002A303806031D43
:1000D8006E286F2879280030BF000030BE0000303D
:1000E800BD000030BC00C201272923303806031D9B
:1000F8007E287F28B5283F083E043D043C04031DA4
:1001080086288728B3280A128A1532240A128A11E7
:100118008830F6008830F700C230F8000A128A15D5
:1001280020250A128A112230F6008830F700903014
:10013800F8000A128A1520250A128A11153083122E
:100148000313B6004B30B500BD30B400B40BAA2879
:10015800B50BAA28B60BAA28B1283330142ADD30EB
:10016800142A380A0319B928BA2827292A30380640
:100178000319BF28C0282729233038060319C528A2
:10018800C62827294208031DCA28CB28DB280130A6
:10019800C2073808B400B501B601B7013708BF0077
:1001A8003608BE003508BD003408BC0020294203CB
:1001B800031DDF28E02819290130C2073808B400D8
:1001C800B501B601B7013F08A3003E08A2003D08EB
:1001D800A1003C08A0000030A7000030A6000030B5
:1001E800A5000A30A4000A128A1580250A128A116D
:1001F800831203132008B40721080318210F0529C7
:100208000629B50722080318220F0B290C29B6075F
:1002180023080318230AB7073708BF003608BE00AB
:100228003508BD003408BC00202902304206031DF1
:100238001E291F292029E02803304206031D2529ED
:100248002629272977283F08031D38293E08031D3A
:1002580038293D08031D3829B5303C02031D3429CF
:10026800031C3729382973290A128A1532240A12DD
:100278008A119530F6008830F700C230F8000A126B
:100288008A1520250A128A110F30F6008930F700E6
:100298009330F8000A128A1520250A128A111F3095
:1002A800F6008930F7009830F8000A128A152025E0
:1002B8000A128A119B3083120313B100DF300A122D
:1002C8008A11E8270A128A119C3083120313B1009D
:1002D80043300A128A11E8270A128A11A22801302B
:1002E80083120313C007FB304006031D7C297D29B8
:1002F800132AC0014108031982298429013085295C
:100308000030C100C730B1000030A3000030A200A7
:100318000030A1006430A0003F08A7003E08A600F6
:100328003D08A5003C08A4000A128A1531270A12C4
:100338008A11831203132008303E0A128A11E82713
:100348000A128A11C83083120313B1000030AB00BF
:100358000030AA000030A9000A30A8000030A3002D
:100368000030A2000030A1000A30A0003F08A7001A
:100378003E08A6003D08A5003C08A4000A128A15FC
:1003880031270A128A11831203132308AF002208A7
:10039800AE002108AD002008AC000A128A15C82555
:1003A8000A128A11831203132808303E0A128A118E
:1003B800E8270A128A11C93083120313B1000030EA
:1003C800AB000030AA000030A9000A30A8003F089E
:1003D800AF003E08AE003D08AD003C08AC000A1274
:1003E8008A15C8250A128A11831203132808303E79
:1003F8000A128A11E8270A128A1183120313410884
:100408000319072A082A132A1B30F6008930F70037
:10041800C730F8000A128A1520250A128A11FF30FF
:10042800080083120313B60033303306031D1D2A58
:100438001E2A482AC201C301C501C601C0010030F5
:10044800F6008830F7008030F8000A128A15202557
:100458000A128A111530F6008930F700C030F8000A
:100468000A128A1520250A128A111130F6008830DE
:10047800F700D030F8000A128A1520250A128A11CE
:10048800FF3083120313B60023303606031D4D2AAE
:100498004E2A502A00307A2B2A303606031D552A58
:1004A800562A632A430803195A2A5B2A5F2AC50178
:1004B8000230C200612AC601C201FF30B600360A06
:1004C8000319672A682ACD2A4308031D6C2A6D2A56
:1004D8009F2A4208031D712A722A7D2A0630360295
:1004E8000318772A782A7D2A0130C2073608C60001
:1004F800902A4203031D812A822A902A0130C207CA
:100508000A30F20046080A128A1543240A128A1190
:10051800831203133607C60002304206031D952ACC
:10052800962ACD2A430803199A2A9C2A01309D2A23
:100538000030C300CD2A02304206031DA42AA52A92
:10054800AA2A0130C2073608C500BE2A033042066F
:10055800031DAF2AB02ABE2A0130C2070A30F200B2
:1005680045080A128A1543240A128A1183120313B2
:100578003607C50004304206031DC32AC42ACD2A03
:10058800C20143080319C92ACB2A0130CC2A0030FA
:10059800C3000130C007C9304006031DD42AD52A3C
:1005A800792BC00141080319DA2ADC2A0130DD2A37
:1005B8000030C100C530B1000A30F2000030F3004D
:1005C8004508B400B5013408F4003508F5000A12EE
:1005D8008A15CC260A128A117208303E0A128A112C
:1005E800E8270A128A11C63083120313B1000A30B1
:1005F800A4000030A5004508B400B5013408A600E1
:100608003508A7000A128A1573260A128A1183125E
:1006180003132408303E0A128A11E8270A128A11A5
:10062800C73083120313B1003A300A128A11E8273F
:100638000A128A11C83083120313B1000A30F2007B
:100648000030F3004608B400B5013408F40035085A
:10065800F5000A128A15CC260A128A117208303E51
:100668000A128A11E8270A128A11C9308312031361
:10067800B1000A30A4000030A5004608B400B50156
:100688003408A6003508A7000A128A1573260A122C
:100698008A11831203132408303E0A128A11E827AC
:1006A8000A128A1183120313410803195C2B5D2B6C
:1006B800792B43080319612B622B6E2B1C30F60033
:1006C8008930F700C530F8000A128A1520250A1269
:1006D8008A11792B1C30F6008930F700C830F800F1
:1006E8000A128A1520250A128A11FF30080083127F
:1006F8000313B70033303306031D832B842BB02B31
:10070800D930F6008830F7008130F8000A128A15CF
:1007180020250A128A114230F6008830F700C130CD
:10072800F8000A128A1520250A128A11E130F6000B
:100738008830F7009130F8000A128A1520250A122D
:100748008A110830F6008930F700D130F8000A1213
:100758008A1520250A128A110430831203133706DA
:10076800031DB72BB82BE22B121DBB2BBC2BE22B86
:100778005A3045020318C12BC22BE22B46081E3EF5
:10078800C6003C304602031CCA2BCB2B202C013060
:10079800C5073C30A4000030A5004608B400B501E8
:1007A8003408A6003508A7000A128A1573260A120B
:1007B8008A11831203132408C600202C043037063C
:1007C800031DE72BE82BEF2B1219EB2BEC2BEF2B50
:1007D80012150715202C05303706031DF42BF52BB1
:1007E800F82B12110711202C06303706031DFD2B9C
:1007F800FE2B202C07110A128A1532240A128A119C
:10080800D030F6008830F700C430F8000A128A1594
:1008180020250A128A110D3083120313B600AF3057
:10082800B500B530B400B40B172CB50B172CB60BAC
:10083800172C1E2C0030D42C4608031D242C252CE4
:100848005C2C4508031D292C2A2C5C2C07110A1244
:100858008A1532240A128A11BA30F6008830F70055
:10086800C330F8000A128A1520250A128A1132307C
:10087800F6008830F7009030F8000A128A15202513
:100888000A128A118312031387141A30831203136E
:10089800B6005E30B5006D30B400B40B512CB50B0A
:1008A800512CB60B512C582C8312031387101E2C75
:1008B8008830B1000A30F2000030F3004508B40077
:1008C800B5013408F4003508F5000A128A15CC265B
:1008D8000A128A117208303E0A128A11E8270A128F
:1008E8008A11893083120313B1000A30A400003042
:1008F800A5004508B400B5013408A6003508A700CE
:100908000A128A1573260A128A11831203132408FD
:10091800303E0A128A11E8270A128A118A30831295
:100928000313B1003A300A128A11E8270A128A1111
:100938008B3083120313B1000A30F2000030F30049
:100948004608B400B5013408F4003508F5000A1269
:100958008A15CC260A128A117208303E0A128A11A8
:10096800E8270A128A118C3083120313B1000A3067
:10097800A4000030A5004608B400B5013408A6005C
:100988003508A7000A128A1573260A128A118312DB
:1009980003132408303E0A128A11E8270A128A1122
:1009A800080083120313B50033303506031DDD2C10
:1009B800DE2CFF2DB430C4002630F6008830F70056
:1009C8008230F8000A128A1520250A128A1101308D
:1009D800F6008930F700C230F8000A128A1520257F
:1009E8000A128A11C83083120313B1000030A30021
:1009F8000030A2000030A1006430A0003F08A7002A
:100A08003E08A6003D08A5003C08A4000A128A1565
:100A180031270A128A11831203132008303E0A1262
:100A28008A11E8270A128A11C93083120313B10008
:100A38000030AB000030AA000030A9000A30A8003E
:100A48000030A3000030A2000030A1000A30A0004E
:100A58003F08A7003E08A6003D08A5003C08A400E2
:100A68000A128A1531270A128A11831203132308DE
:100A7800AF002208AE002108AD002008AC000A1221
:100A88008A15C8250A128A11831203132808303ED2
:100A98000A128A11E8270A128A11CA30831203132C
:100AA800B1000030AB000030AA000030A9000A30C5
:100AB800A8003F08AF003E08AE003D08AD003C0866
:100AC800AC000A128A15C8250A128A118312031368
:100AD8002808303E0A128A11E8270A128A11CB30F8
:100AE80083120313B100DF300A128A11E8270A12B1
:100AF8008A11CC3083120313B10043300A128A11D1
:100B0800E8270A128A11A230F6008830F7009030E0
:100B1800F8000A128A1520250A128A11FF2D9B3027
:100B2800B1006430F2000030F3004408B300B401AF
:100B38003308F4003408F5000A128A15CC260A1284
:100B48008A117208303E0A128A11E8270A128A119D
:100B58009C3083120313B1000A30A4000030A500B2
:100B68000A30F2000030F3004408B300B40133083F
:100B7800F4003408F5000A128A15CC260A128A11E4
:100B8800730883120313A7007208A6000A128A15B5
:100B980073260A128A11831203132408303E0A129C
:100BA8008A11E8270A128A119D3083120313B100B3
:100BB8000A30A4000030A5004408B300B40133088B
:100BC800A6003408A7000A128A1573260A128A1189
:100BD800831203132408303E0A128A11E8270A12E6
:100BE8008A119E3083120313B10073300A128A11DE
:100BF800E8270A128A11831203134408031D052EDD
:100C0800062E932DD53083120313B3000B2E0C2E12
:100C1800B30B0A2E0F2E102E112E003008000130B3
:100C280083120313B9000A128A1569240A128A1159
:100C380083120313121101300A128A15A7240A120B
:100C48008A1183120313BA0002303906031D2D2EB0
:100C58002E2E152F3A03031D322E332E3D2E113022
:100C6800B9003330BB000A128A1532240A128A11DD
:100C7800152F02303A06031D422E432E462E1230FF
:100C8800B900372E03303A06031D4B2E4C2E512E39
:100C98001330B9003330BB00372E04303A06031D39
:100CA800562E572E5C2E1430B9003330BB00372E29
:100CB800152F0A128A1597270A128A11003A031D5E
:100CC800662E672E342F0A128A1532240A128A11C8
:100CD800023083120313B9001F2E3B08B3003A08F1
:100CE8000A128A1115220A128A11003A031D7D2E52
:100CF8007E2E342F553083120313B9003330BB00D6
:100D08000A128A1532240A128A1183120313121541
:100D180007151F2E3B08B3003A080A128A117B23D5
:100D28000A128A11003A031D9A2E9B2E342F831221
:100D3800031312110A128A1532240A128A11023078
:100D480083120313B900342F0A128A15F3240A12E6
:100D58008A11342F3B08A0003A080A128A15CA24BF
:100D68000A128A1183120313B9003330BB000A1226
:100D78008A1532240A128A111F2E4430B9003330E2
:100D8800BB001F2E0A128A1532240A128A11DD307E
:100D980083120313B9003330BB0012151F2E0A1239
:100DA8008A1532240A128A11133083120313B900E8
:100DB8003330BB001F2E3B08B3003A080A128A11D1
:100DC80026200A128A11333A0319D32EEE3A031950
:100DD800C62E342F3B080A128A1556240A128A1185
:100DE800003A031DF82EF92E342F553083120313C1
:100DF800B9003330BB00121507151F2E3B080A1225
:100E08008A11D5240A128A11003A031D0C2F0D2FBE
:100E1800342F443083120313B9003330BB0012114E
:100E2800BB2E831203133908013A03195D2E033AC6
:100E38000319A82E133A0319AE2E033A0319C12E2B
:100E4800013A0319DF2E073A0319EE2E503A031917
:100E5800712E113A03198E2E883A0319022F342F56
:100E6800223083120313BB001F2E0A128A110C288A
:100E78008312031388110815881408146430F200CB
:100E88000030F300FF30F2070318F30AFF30F307CE
:100E9800720A031D532F730A031D532F542F462F15
:100EA800831203130618592F5A2F5C2F0130E72F8E
:100EB80086185F2F602F622F0230E72F0619652FE3
:100EC800662F682F0330E72F881508118814081437
:100ED8006430F2000030F300FF30F2070318F30A21
:100EE800FF30F307720A031D7D2F730A031D7D2F40
:100EF8007E2F702F831203130618832F842F862FBB
:100F08000430E72F8618892F8A2F8C2F0530E72F7A
:100F180006198F2F902F922F0630E72F8815081566
:100F2800881008146430F2000030F300FF30F20734
:100F38000318F30AFF30F307720A031DA72F730A79
:100F4800031DA72FA82F9A2F831203130618AD2F5E
:100F5800AE2FB02F0730E72F8618B32FB42FB62F38
:100F68000830E72F0619B92FBA2FBC2F0930E72F01
:100F780088150815881408106430F2000030F30052
:100F8800FF30F2070318F30AFF30F307720A031D54
:100F9800D12F730A031DD12FD22FC42F831203130D
:100FA8000618D72FD82FDA2F2A30E72F8618DD2FEB
:100FB800DE2FE02F0030E72F0619E32FE42FE62F6E
:100FC8002330E72FFF30080083120313B200F20129
:100FD80031080A128A1587240A128A11F201F20AC4
:100FE8008312031332080A128A1587240A128A11F7
:040FF80008000134B8
:101000005334453454342034543449344D34453405
:1010100020343C344D344D343A34533453343E341C
:1010200000342A343A3443344C3445344134523455
:101030002034203423343A3445344E345434453447
:101040005234003466346F34723420345034723485
:1010500065342D34483465346134743469346E3405
:101060006734003445346E346A346F347934203454
:1010700079346F347534723420346D3465346134AE
:101080006C34003434342E345334543441345234B8
:1010900054342F3452344534533455344D3445345C
:1010A00000344D346934633472346F3477346134CE
:1010B0007634653420344F34763465346E340034FD
:1010C0005334453454342034543445344D3450343E
:1010D00020343C34203443343E34003450346F34B4
:1010E00077346534723420343D342034393430342C
:1010F00030345734003433342E3443346F346E3448
:10110000763465346334743469346F346E34003447
:1011100053346534743420344D3469346E3420349F
:10112000543465346D34703400345334653474345D
:1011300020344D34613478342034543465346D3483
:1011400070340034543469346D34653420344C3494
:101150006534663474343A342034003450346F3497
:1011600077346534723469346E34673420344F34E4
:101170006E340034543449344D34453420345534BD
:1011800050342134213421340034543445344D3426
:10119000503420343D342034303430343034003452
:1011A000533454344F34503450344534443421345F
:1011B0000034543449344D34453420343D342034E3
:1011C000003435342E34503441345534533445349E
:1011D000003432342E344734723469346C346C3415
:1011E000003431342E344D346934633472346F3406
:1011F000003434342E3453347434613472347434DF
:101200000034543465346D3470343A34203400344E
:1012100036342E34533454344F345034003455342F
:10122000703474346F3420340034543449344D34C1
:1012300045343A34003420342034203400343134FE
:10124000383430340034FF1B2D2983137F18831763
:101250000008840A0319FF0A08007F087F398A0002
:0A1260000408840A0319FF0A820043
:10181400831603138801091189100A128A151C26DC
:101824000A128A1508008312031312149214FA3050
:101834008316031392008C148312031312150800E9
:10184400831603130608073886000808F039880051
:1018540081138312031388150815881408140800CB
:10186400F20101300A128A1587240A128A150430FB
:10187400F7003D30F600F60B3D2CF70B3D2C422CC7
:101884000800F400F301741C482C492C4B2C7208FA
:10189400F3070310F20D0310F40C7408031D532C0A
:1018A400542C452C73080800F30033307306031DD1
:1018B4005C2C5D2C622C1E3083120313C600C50100
:1018C400A630F200F20B642C0000003008000A126B
:1018D4008A150A240A128A150A128A1522240A125F
:1018E4008A150A128A1515240A128A158B170B17E2
:1018F40083160313071183120313071183160313AB
:1019040087108312031387100800F50072188B2CBC
:101914008F2C831203130915922C831203130911BC
:10192400750888008914A630F300F30B972C000087
:101934008312031389101B30F4009E30F300F30B61
:10194400A12CF40BA12C00000800F4000A128A1147
:101954003C270A128A15F5007408031DB22CB32C17
:10196400B52C7508C92C750A0319B92CBA2CC12CCD
:101974007B080319BE2CBF2CC12CFB01B32C750AA8
:10198400031DC52CC62CC82C0130FB00FF300800F9
:101994003330831203132006031DD12CD22CF12CD7
:1019A4006E30F6008830F700C230F8000A128A154B
:1019B40020250A128A151A3083120313A3005E30FD
:1019C400A2006D30A100A10BE52CA20BE52CA30B0A
:1019D400E52CEC2C0A128A1532240A128A1544309A
:1019E4000800F130F6008830F7008030F8000A1261
:1019F4008A1520250A128A15E930F6008830F70086
:101A0400C030F8000A128A1520250A128A157B3084
:101A1400F6008830F7009030F8000A128A15202565
:101A24000A128A15F930F6008830F700D030F80031
:101A34000A128A1520250A128A150800F20178086C
:101A44000A128A1587240A128A153E2DF201F20A17
:101A54007708FF00760884000A128A1523210A12E7
:101A64008A150A128A1587240A128A150130F60784
:101A74000318F70A0030F707770883120313FF00EF
:101A8400760884000A128A1523210A128A15003A5C
:101A9400031D4D2D4E2D282D0800831203138C1C7D
:101AA400542D552D792D0130F9070318FA0A003009
:101AB400FA07E2307906043003197A06031D632D10
:101AC400642D782DF901FA010130C602460A031D7E
:101AD4006C2D6D2D712D3B30C6000130C5024408BC
:101AE4000319752D762D782D0130C4028C107108E0
:101AF4008A00700E8300FE0E7E0E09000030F60090
:101B04000030F5000030F4000030F30083120313BA
:101B1400201C8D2D8E2DA52D2408F30725080311D7
:101B24000318013E0319972DF4072608031103181F
:101B3400013E03199E2DF507270803110318013EE2
:101B44000319A52DF6070130F2000310A40DA50D0D
:101B5400A60DA70DF20BA72D01300310A30CA20CA8
:101B6400A10CA00CFF3E031DAF2D23082204210469
:101B74002004031DBE2DBF2D882D7608A3007508F3
:101B8400A2007408A1007308A000080083120313C4
:101B94002B082A04290428040319D12DD22D132E2D
:101BA4000130B000E02D0130F8000310A80DA90D9C
:101BB400AA0DAB0DF80BD72D0130B007AB1FE32DE9
:101BC400E42DD52D2B082F02031DF22D2A082E02F9
:101BD400031DF22D29082D02031DF22D28082C02C5
:101BE400031CF52DF62D042E2808AC022908031C2D
:101BF400290FAD022A08031C2A0FAE022B08031C6E
:101C04002B0FAF0201300310AB0CAA0CA90CA80CCB
:101C1400FF3E031D052E0130B002031D122E132EAC
:101C2400E42D2F08AB002E08AA002D08A9002C08CB
:101C3400A8000800C330F700CD30F600F60B202EC4
:101C4400F70B202EF20133300A128A1587240A1268
:101C54008A151B30F7009E30F600F60B2F2EF70B7B
:101C64002F2E0000F20133300A128A1587240A123B
:101C74008A15A630F600F60B3D2E0000F201333033
:101C84000A128A1587240A128A15482E492E000042
:101C9400F20138300A128A1587240A128A15A630EE
:101CA400F600F60B532E0000F20101300A128A15D9
:101CB40087240A128A150430F7003D30F600F60B2B
:101CC400612EF70B612E662EF2010C300A128A1572
:101CD40087240A128A15A630F600F60B6F2E000030
:101CE4000800F70183120313A71F792E7A2E812E81
:101CF400A609A709A60A0319A70A0130F700A51F18
:101D0400842E852E8A2EA409A509A40A0319A50ADE
:101D14002408250403198F2E902EBD2E0130F600C1
:101D24009C2E01300310A40DA50DFF3E031D942E1F
:101D34000130F607A51F9F2EA02E932E25082702FB
:101D4400031DA62E24082602031CA92EAA2EB02E9B
:101D54002408A6022508031CA703A70201300310C8
:101D6400A50CA40CFF3E031DB12E0130F602031D89
:101D7400BC2EBD2EA02E77080319C12EC22EC72E4D
:101D8400A609A709A60A0319A70A2708A500260871
:101D9400A400080083120313A101F31FD22ED32E33
:101DA400DA2EF209F309F20A0319F30A0130A10049
:101DB400F51FDD2EDE2EE52EF409F509F40A0319CC
:101DC400F50A0130A106A201A301720873040319E4
:101DD400EC2EED2E222F0130A000F92E013003103D
:101DE400F20DF30DFF3E031DF12E0130A007F31F8A
:101DF400FC2EFD2EF02E01300310A20DA30DFF3E8C
:101E0400031DFE2E73087502031D0A2F7208740247
:101E1400031C0D2F0E2F152F7208F4027308031CD8
:101E2400F503F502221401300310F30CF20CFF3E0B
:101E3400031D162F0130A002031D212F222FFD2E7A
:101E440021080319262F272F2C2FA209A309A20A40
:101E54000319A30A2308F3002208F2000800003043
:101E6400F6000030F5000030F4000030F300831277
:101E7400031323082204210420040319422F432FAF
:101E84008E2F0130F700512F0130F2000310A00D06
:101E9400A10DA20DA30DF20B482F0130F707A31FCC
:101EA400542F552F462F0130F2000310F30DF40D7B
:101EB400F50DF60DF20B572F23082702031D6C2F87
:101EC40022082602031D6C2F21082502031D6C2FF6
:101ED40020082402031C6F2F702F7F2F2008A402D8
:101EE4002108031C210FA5022208031C220FA602AD
:101EF4002308031C230FA702731401300310A30C3F
:101F0400A20CA10CA00CFF3E031D802F0130F70290
:101F1400031D8D2F8E2F552F7608A3007508A20060
:101F24007408A1007308A000080083120313B6010B
:101F34003608803EB100FF300A128A11E8270A12DF
:101F44008A15D53083120313B300A82FA92FB30B1E
:101F5400A72FAC2FAD2FAE2F013083120313B6077A
:101F640010303602031CB72FB82F9A2FAE30F6006C
:101F74008830F700C230F8000A128A1520250A12A8
:101F84008A155130F6008830F7009130F8000A12B3
:101F94008A1520250A128A1583120313B7013708FC
:101FA400D03EB100FF300A128A11E8270A128A15BE
:101FB400C33083120313B400CC30B300B30BE02F4F
:101FC400B40BE02F0000013083120313B707103065
:101FD4003702031CEE2FEF2FD12F1A308312031375
:101FE400B5005E30B4006D30B300B30BF72FB40B03
:0C1FF400F72FB50BF72FFE2F0030080070
:02400E00FB3F76
:00000001FF
